:020000040800F2
:103000006035002045310008E9590008414F0008AB
:10301000415800085D3E0008F17100080000000002
:1030200000000000000000000000000051630008E4
:1030300059410008000000009D5A00082D68000852
:103040005F3100088D5A00085F3100085F310008C9
:103050005F3100085F3100085F3100085F31000810
:103060005F3100085F3100085F3100085F31000800
:103070005F3100085F3100085F3100085F310008F0
:103080005F3100085F3100085F3100085F310008E0
:103090005F3100085F3100085F3100085F310008D0
:1030A0005F3100085F3100085F3100085F310008C0
:1030B0005F3100085F3100085F3100085F310008B0
:1030C0005F3100085F3100085F3100085F310008A0
:1030D0005F310008416E0008856E00085F3100080E
:1030E0005F3100085F3100085F3100085F31000880
:1030F0005F3100085F3100085F3100085F31000870
:103100005F3100085F310008256900085F31000861
:103110005F3100085F3100085F3100085F3100084F
:103120005F3100085F3100085F3100085F3100083F
:10313000DFF80CD000F03EFC00480047E1870008B3
:10314000603500200648804706480047FEE7FEE756
:10315000FEE7FEE7FEE7FEE7FEE7FEE7FEE7FEE747
:10316000C5680008313100082DE9F05F05460020F0
:1031700092469B4688460646814640241BE02846E8
:1031800041464746224600F0C8F953465A46C01AFF
:10319000914110D311461846224600F0AFF92D1A7E
:1031A00067EB01084F4622460120002100F0A6F9F6
:1031B00017EB00094E41201EA4F10104DFDC484654
:1031C00031462A464346BDE8F09F2DE9FE43994625
:1031D00015468846074601AC022942D3002D40D04F
:1031E00000200290A8F101004FF0FF36009022E08D
:1031F00000FB057201FB057011464A469047002806
:1032000005DC54F82600304444F8260013E06068DA
:103210002A4600FB057154F8040C00FB057007E01A
:103220000B7890F800C001F801CB00F8013B521E6A
:10323000002AF5D1764254F8040C61688842D7DC44
:103240004B462A463846FFF7C0FF54F8040C4B465D
:10325000A8EB0001401C00FB05702A46491EFFF741
:10326000B4FFBDE8FE8340EA01039B0703D009E0F9
:1032700008C9121F08C0042AFAD203E011F8013B62
:1032800000F8013B521EF9D27047D2B201E000F8BB
:10329000012B491EFBD270470022F6E710B51346FA
:1032A0000A4604461946FFF7F0FF204610BDF0B469
:1032B00080EA0102D40F4200B2EB410F02D2024673
:1032C000084611464A0042D0C30DDDB2C1F3C752D1
:1032D000AD1A202D35DAC1F3160141F4000204B114
:1032E0005242C5F1200602FA06F12A411044B3EB1E
:1032F000D05F23D0C4B1012DA0EBC35009DCF0BCDA
:103300004FF0004202EAC352DBB200F5000000F0C9
:103310006AB9400000F1807000EBC350A0F18070EA
:1033200040EAD170490009E0490841EAC071A0EBC8
:10333000C35000F50000400800EBC350F0BC00F0A3
:1033400049B96142012202EB4101001BF6E7F0BCE2
:10335000704781F00041AAE780F00040A7E780EACB
:10336000010210B502F00043400022D04A001FD0F5
:10337000010E01EB1261C0F35600C2F3560240F495
:10338000000042F40002A0FB022000047F39140474
:1033900000D0401C50EA124001D44000491EC2B285
:1033A0000C0604EBD010401C4008802A02D003E039
:1033B000002010BD20F00100002900DA0020184391
:1033C00010BD30B480EA010202F0004530F0004246
:1033D00021F0004013D090B1C30DD40DC2F31601FB
:1033E000C0F31600E41A41F4000140F400027D34F9
:1033F000914201D3641C00E04900002C02DA30BC89
:10340000002070474FF400000023914201D3891A35
:10341000034340084FEA4101F7D151B1914202D133
:103420004FF0004105E002D24FF0010101E06FF0E2
:10343000010103EBC450284430BC00F0CBB8C10FED
:1034400080EAE0700844CA079623002100F0CBB858
:1034500096230022114600F0C6B820F00040C10DAE
:10346000C0F3160040F400007F2901DA0020704705
:10347000962903DCC1F19601C8407047963988400F
:10348000704700F0004230F000400AD0C10D01F555
:103490006071C0F3160042EA0151C20840071143AF
:1034A0007047002001467047002801DBC0F1004052
:1034B000002901DBC1F1004181427047002801DB96
:1034C000C0F10040002901DBC1F100418842704792
:1034D00030B50B46014600202022012409E021FAE4
:1034E00002F59D4205D303FA02F5491B04FA02F5E1
:1034F0002844151EA2F10102F1DC30BD202A04DBB4
:10350000203A00FA02F1002070479140C2F12003F6
:1035100020FA03F3194390407047202A04DB203A35
:1035200021FA02F00021704721FA02F3D040C2F1E3
:10353000200291400843194670470000014900F0FD
:1035400003B800003405002010B500683C22B0FB31
:10355000F2F302FB1303B0FBF2F00B60B0FBF2F3EB
:1035600002FB1303B0FBF2F018224B60B0FBF2F346
:1035700002FB1303B0FBF2F0021D8B600723B2FBCA
:10358000F3F403FB1422800040F2B55300F66C30D4
:103590008A61B0FBF3F2B0FBF3F403FB1400443296
:1035A00080084A61C8613B2802D3920700D0401CC2
:1035B0000022074C13460A61E25C824203D8801A5B
:1035C0005B1C0B61F8E7401CC860084610BD00009A
:1035D000D69600080029A8BF7047401C490008BFC4
:1035E00020F00100704710B4B0FA80FC00FA0CF033
:1035F00050EA010404BF10BC704749B1CCF120046B
:1036000021FA04F411FA0CF118BF012121430843F7
:10361000A3EB0C01CB1D4FEA00614FEA102042BF23
:10362000002010BC704700EBC35010440029A4BF19
:1036300010BC7047401C490008BF20F0010010BCBE
:1036400070472DE9FE4F804681EA0300C00F0C460B
:10365000009021F0004123F00045B8EB0200A941A1
:1036600005D24046214690461C460B46024623F0B2
:103670000040104347D0270DC7F30A00C3F30A5197
:103680000290401A019040286BDAC3F3130040F413
:10369000801B0098924620B10023D2EB030A63EB13
:1036A0000B0B01985946C0F140025046FFF726FF28
:1036B00006460D4650465946019A00F08DF910EB2A
:1036C00008006141002487EA115284EAE7731A4333
:1036D00040D0009A62B3019A012A4FEA075215DCE2
:1036E000001B61EB02014FF0004202EA0752CDE9F4
:1036F0000042001C41F5801132462B4600F08DF946
:1037000003B0BDE8F08F40462146F9E7001B61EBAE
:103710000201001C41F5801300185B412018A2F53E
:10372000001747EB030140EAD570B6196D4111E06F
:103730006D084FEA360645EAC0754FEA0752001B8E
:1037400061EB0201001C41F5801149084FEA30008D
:103750000019514132462B4603B0BDE8F04F00F04E
:103760004DB90098012240000023D0EB020263EB28
:10377000E073009821464FEAE074B8EB000061EB7B
:103780000401E9E783F000435BE781F0004158E77B
:103790002DE9FE4F81EA030404F0004421F00041CA
:1037A00000944FF0000B23F0004350EA01045ED078
:1037B00052EA03045BD0C3F30A54C1F30A552C4404
:1037C000A4F2F3340194A0FB0254C1F3130141F4B9
:1037D0008011C3F3130343F4801301FB024400FB85
:1037E000034E840A970A44EA815447EA8357A4FBAC
:1037F000076802958D0A05FB07854FEA932C04FBA9
:103800000C542705029D4FEA065847EA1637B5EBD8
:1038100008056EEB070C870E920E47EA811742EA05
:103820008312A7FB0201B6EB0B0164EB00042B0D26
:1038300043EA0C335E1844EB1C50DA465146E7FB72
:103840000201C5F313044FEA0B3343EA14534FEA62
:103850000432019C43EA0603A4F10C040294009C88
:10386000CDE900B400F0D9F803B0BDE8F08F002036
:103870000146F9E72DE9F04D81EA030404F0004B1D
:1038800021F0004514464FF0000A23F0004150EAB1
:10389000050220D054EA01021DD0C5F30A570246A2
:1038A000C5F31303C1F31300C1F30A5640F48015A6
:1038B00043F48013A7EB0608101BD64608F2FD3828
:1038C00073EB050002D308F1010801E092185B4197
:1038D000B8F1000F03DA00200146BDE8F08D0020AA
:1038E0004FF48011064684460EE0171B73EB050764
:1038F00005D3121B63EB050306434CEA010C490890
:103900004FEA300092185B4150EA0107EDD152EACC
:10391000030012D082EA040083EA0501084305D0BF
:10392000101BAB4106D20122002306E000224FF01B
:10393000004302E06FF0010253101AEB06004CEB5B
:10394000085110EB0A0041EB0B01BDE8F04D00F00F
:1039500055B8C1F30A52C1F3130140F2FF3341F4E9
:1039600080119A4202DA00200146704740F2334348
:103970009A42A2F2334202DC5242FFF7CEBDFFF779
:10398000BDBD000030B5041E71F1000404DB4FF032
:103990000044404264EB0101141E73F1000405DB96
:1039A0001C464FF00043524263EB0403994208BFA8
:1039B000904230BD064C074D06E0E06840F0010340
:1039C00094E8070098471034AC42F6D3FFF7B4FBF5
:1039D0004897000868970008202A06DBCB17203A92
:1039E00041FA02F043EAE07306E041FA02F3D04004
:1039F000C2F12002914008431946704710B5141EC9
:103A000073F1000408DA401C41F1000192185B4197
:103A10001A4301D120F0010010BD2DE9F04D92466E
:103A20009B4611B1B1FA81F202E0B0FA80F2203285
:103A30009046FFF763FD04460F4640EA0A0041EA5C
:103A40000B0153465A46084313D0114653EA01006E
:103A500019D0C8F140025046FFF75FFD05460E46FB
:103A6000504659464246FFF749FD084305D001201C
:103A700004E020463946BDE8F08D0020054346EAC3
:103A8000E0762C4337430A986305E40AA0EB08006C
:103A90000022FD0A44EA47540A3002D500200146BC
:103AA000E9E7010510196941DDE908450019694197
:103AB000BDE8F04DA2E770B58C1810F8015B15F069
:103AC000070301D110F8013B2A1106D110F8012B90
:103AD00003E010F8016B01F8016B5B1EF9D12B07B5
:103AE00005D40023521E0DD401F8013BFAE710F86B
:103AF000013BCB1A921C03E013F8015B01F8015B58
:103B0000521EF9D5A142D8D3002070BD21B18268E0
:103B100042F00102826003E0826822F001028260CA
:103B20007047000010B504461248844208D10121B4
:103B3000401502F037F90021601502F033F917E063
:103B40000D48844208D10121001502F02BF9002113
:103B5000201502F027F90BE00848844208D1012122
:103B6000C80302F01FF900214FF4004002F01AF9D7
:103B700010BD00000024014000280140003C01402D
:103B8000014600208A6802F004020AB1012000E028
:103B9000002070470146C86C80B270470246002082
:103BA00013680B400BB1012000E000207047014674
:103BB00000208A6802F008020AB1012000E000201B
:103BC0007047000030B502460020002350680F4CBB
:103BD00020400D790C6844EA052420435060906829
:103BE0000B4C2040D1E902542C434D7944EA450462
:103BF00020439060D06A20F470000C7C641EE4B214
:103C0000234340EA0350D06230BD0000FFFEF0FFC6
:103C1000FDF7F1FFF0B504460D4600200021092D07
:103C200011DDE068A5F10A0606EB4607072606FA4D
:103C300007F18843A5F10A0606EB460603FA06F1EA
:103C40000843E0600CE0206905EB4507072606FA0B
:103C500007F1884305EB450603FA06F108432061A6
:103C6000072A0FDA606B561E06EB86071F2606FA38
:103C700007F18843561E06EB860605FA06F108434F
:103C8000606322E00D2A0FDA206BD61F06EB860751
:103C90001F2606FA07F18843D61F06EB860605FAAB
:103CA00006F10843206310E0E06AA2F10D0606EB7E
:103CB00086071F2606FA07F18843A2F10D0606EBD8
:103CC000860605FA06F10843E062F0BD816841F01E
:103CD00008018160704721B1826842F4A0028260CD
:103CE00003E0826822F4A00282607047816841F09C
:103CF000040181607047000000B585B001214802D1
:103D000002F040F84FF4004002F000F81B48FFF7C3
:103D100009FF002000908DF8040001208DF80500B7
:103D20004FF4602002900020039001208DF81000D5
:103D300069461248FFF746FF052301220C210F4870
:103D4000FFF768FF01210D48FFF7E0FE0B48FFF782
:103D5000BDFF00BF0948FFF72AFF0028FAD1074836
:103D6000FFF7C4FF00BF0548FFF70AFF0028FAD19C
:103D700001210248FFF7AFFF05B000BD002401405C
:103D800070B505462A46BF21124800F025FA0446C0
:103D90001CB900201049087070BD601E0D4931F833
:103DA000100031F81410411A601E0A4A32F810004F
:103DB000401B00EB8000400090FBF1F1A4F11F00DC
:103DC00000EB800001EB400086B201200249087040
:103DD0003046E1E758950008AC02002010B50448D1
:103DE00002F078FF01F016FA01F02CFD10BD000082
:103DF0006D6C000810B502460023002003E032F885
:103E000010402344401C8842F9D3B3FBF1F080B248
:103E100010BD10B5012001F0D5FF002001F0D2FF48
:103E200010BD000008B50146002000900348009036
:103E30000098084400900098008808BD006C00407D
:103E400008B500220092044A0092009A02440092AF
:103E5000009A116008BD0000006C004000BFFEE742
:103E600018B900210D4A117016E0012803D1012173
:103E70000A4A117010E0022803D10221074A11708A
:103E80000AE0032803D10321044A117004E0042846
:103E900002D10421014A117070470000A8000020DF
:103EA00030B502460B46FF20002113E0545C604011
:103EB00008240BE000F0800525B1312585EA400596
:103EC000E8B201E04506280E651EECB2002CF1DCDC
:103ED0004C1CE1B29942E9D330BD70B5024613469D
:103EE0000C4600201D882688B54201DD401E06E0F4
:103EF0001D882688B54201DA012000E0002070BD4F
:103F00002DE9F0410446E178A07801EB002086B26B
:103F10000EB1642E01DDBDE8F081711E08030B2295
:103F20001C4902F0DEF820781B4908706078487060
:103F30008E700920C870002007E0164A811C525C70
:103F4000011D154B5A54411CC8B20928F5DB0D213F
:103F5000114804F0A1FC05460F494D73002040EACA
:103F600025208873002711E040210C4802F0BAFF99
:103F70000948C15D094803F0FEF800BF4021074829
:103F800003F02CF80028F9D0781CC7B20F2FEBDB18
:103F900000BFC0E7720300207D030020003801400D
:103FA00001490860704700000C02002021B102683E
:103FB00042F00102026004E002684FF6FE731A400C
:103FC0000260704701684FF6FE72114001600021E7
:103FD000016041608160C1604B49884208D14A4913
:103FE0000839496841F00F01474A083A51608AE0B0
:103FF00045491431884208D143490839496841F09C
:10400000F001414A083A51607DE03F492831884239
:1040100008D13D490839496841F470613A4A083A83
:10402000516070E038493C31884208D1364908393E
:10403000496841F47041344A083A516063E03249BA
:104040005031884208D130490839496841F470211B
:104050002D4A083A516056E02B496431884208D114
:1040600029490839496841F47001274A083A5160E2
:1040700049E025497831884208D1234908394968FF
:1040800041F07061204A083A51603CE01F49884283
:1040900006D1011F096841F00F01021F116032E0D3
:1040A0001A491431884208D11849091F096841F09A
:1040B000F001164A121F116025E014492831884288
:1040C00008D11249091F096841F470610F4A121F93
:1040D000116018E00D493C31884208D10B49091F95
:1040E000096841F47041094A121F11600BE0074949
:1040F0005031884207D10549091F096841F47021F0
:10410000024A121F11607047080002400804024072
:104110000146486880B2704710B50022026847F631
:10412000F0739A430C6A8B6823430C6923434C69F0
:1041300023438C692343CC6923434C6A23438C6A11
:1041400023431A430260CB6843600B6883604B686B
:10415000C36010BD416070477047000007480068A9
:1041600040F0807005490860002005494860084615
:10417000006840F00100086070470000FCED00E0BE
:10418000001000E030B50446002504E04FF47A70DA
:1041900000F004F86D1CA542F8D330BD10B50146FF
:1041A0000C4C626801EBC104E300D018904205DDBD
:1041B00000BF084C64688442FBD309E000BF054C93
:1041C00064688442FBD200BF024C64688442FBD323
:1041D00010BD0000001000E0F0B504460B46154687
:1041E00000225E1E581E0CE0B71A07EBD77C02EBCC
:1041F0006C0134F81170AF4202DC4E1E084600E03C
:104200004A1CB242F0DDF0BD10B502F08DF804207A
:1042100002F05AF802F092F810BD00003EB500F02E
:1042200023FE90F904400FA20321012001F066FA59
:10423000002000900190029022460CA1684603F0F5
:10424000E9F86A460321072001F092FA094890F93B
:104250000000A04204D007480470E0B202F08EF8DB
:104260003EBD0000B5D8D6B73D20000025303264F1
:1042700000000000D200002010B500F067FD0446E9
:10428000034800EBC40201210D2001F046FA10BDE5
:104290007C00002010B592B000F0E6FD90F90240DD
:1042A00021A20121084601F029FA621C22A10AA8D4
:1042B00003F0B0F80AAA0121032001F059FA2021E5
:1042C0000AA8FEF7E9FF04F2011188B202A900F082
:1042D0008FFC9DF80B0000909DF808109DF80900D8
:1042E00001EB00229DF80A3015A10AA803F092F80C
:1042F0000AAA0321012001F03BFA20210AA8FEF7B7
:10430000CBFF9DF80E0000909DF80D309DF80C201D
:104310000FA10AA803F07EF80AAA0521012001F0E6
:1043200027FA12B010BD0000B5DA2020C2B7B6CF10
:10433000BFAACAB1BFCC0000253032640000000023
:10434000253032642D253032642D25303264000052
:10435000253032643A253032643A25303264000028
:1043600010B500F06BF800F01DF8FFF793FF10BDDB
:1043700010B508A20721012001F0C0F906A207210B
:10438000042001F0BBF905A207210C2001F0B6F9C9
:1043900010BD00003C0000003E000000C7E5B3FD7A
:1043A0000000000010B505A20721012001F0A6F9C8
:1043B00003A20721052001F0A1F910BD3C00000077
:1043C0003E00000010B50DA20121084601F096F94B
:1043D0000EA20721012001F091F90DA2072105206D
:1043E00001F08CF90BA205210C2001F087F90BA23A
:1043F00007210C2001F082F910BD0000B2CECAFDE9
:10440000C5E4D6C3D2B3C3E6000000003C00000000
:104410003E000000B3A4B0B400000000C8B7C8CF8D
:104420000000000010B500F009F800F017FA00F0E5
:1044300089F900F06BF8FFF71FFF10BD10B503A25C
:104440000721084601F094F910BD00004D656E7516
:104450000000000010B5FFF7B5FFFFF7DFFE10BD4D
:104460003EB5FFF7EBFF19A20121084601F046F91E
:10447000002000900190029000F05CFC044622466F
:1044800016A1684602F0C6FF6A460321012001F02A
:104490006FF914A20321084601F030F900200090C2
:1044A0000190029000F04CFC044622460BA16846A5
:1044B00002F0B0FF6A460321052001F059F90AA273
:1044C0000521012001F01AF93EBD0000B4AEBFDAAB
:1044D000B2CECAFDD2B3C3E600000000253032647C
:1044E000000000002C000000CBABBBF74B332CC509
:1044F000E4D6C3BDE7C3E6200000000010B5FFF717
:104500009DFFFFF735FF00F02DF810BD00B587B017
:104510000FA20521012001F02BF9684600F03DFCB7
:1045200078B10020049005900690BDF80C200AA1F7
:1045300004A802F06FFF04AA0521072001F018F972
:1045400004E007A20521072001F012F907B000BD21
:1045500054696D65723A0000253033640000000034
:104560002D2D0000F0B597B0614903C9CDE90101D7
:1045700060A20121042001F0C1F85FA201210C20FA
:1045800001F0BCF803A800F008FC00287DD000F082
:104590006BFC90F90100BDF81810084480B2ADF82A
:1045A0001800BDF8180008B917B0F0BDBDF8180024
:1045B000C8280ADDBDF818004FF6FF71884204D103
:1045C00000F052FC00214170EEE7BDF818004B49A5
:1045D0000988884203D14A480078012871D1002017
:1045E00047490870BDF818004449088020210FA8E9
:1045F000FEF752FEBDF8182042A10FA802F00AFFF4
:104600000FAA0121084601F0B3F820210FA8FEF7F8
:1046100043FEBDF81810491E88B207A900F0D2FB6E
:104620009DF82000FF2800D1BEE79DF823000090F0
:104630009DF820109DF8210001EB00229DF822300A
:1046400032A10FA802F0E6FE0FAA0321012001F01B
:104650008FF820210FA8FEF71FFE9DF8260000907E
:104660009DF825309DF824202CA10FA802F0D2FE41
:104670000FAA0521012001F07BF801A803F09CFBA3
:1046800020210FA8FEF708FE00E01BE09DF81E2089
:104690009DF81F1002EB0120FEF7D1FE07462349CB
:1046A000FEF78FFE0446FEF7ECFE05462A460B4653
:1046B0001FA10FA802F0AEFE0FAA0121082001F0F1
:1046C00057F813E01CA20121084601F051F81AA284
:1046D0000121082001F04CF818A20321012001F06B
:1046E00047F816A20521012001F042F800BF5BE760
:1046F0003C930008B4CE00006B410000D0000020C5
:10470000CB000020253032640000000025303264E8
:104710002D253032642D253032640000253032647E
:104720003A253032643A25303264000000002041DE
:104730002530322E316600002D2D00002D2D2D2D1F
:104740002D0000007FB539A20321012001F010F8EF
:10475000384A03210A2000F0E0FF684600F074FBAD
:10476000002857D000200190029003903249009811
:10477000FEF7F5FD0446FEF770FE00F40040B0F5CC
:10478000004F10D02D490098FEF798FE00D27FBD53
:1047900000210098FEF7DDFD009029A203210620EC
:1047A00000F0E6FF27E027490098FEF77DFE00D2E3
:1047B000EDE721490098FEF7D2FD06464FF07E5105
:1047C000FEF7C7FD0546FEF748FE80B24FF6FF71C3
:1047D0000C1A2046FEF733FE009017490098FEF7AA
:1047E000F0FD04460021FEF762FD009016A20321B1
:1047F000062000F0BDFF0098FEF72FFE84B222468F
:1048000012A101A802F006FE01AA0321072000F070
:10481000AFFF09E00FA20321062000F0A9FF0EA2BE
:104820000321072000F0A4FF00BFB0E754656D70BE
:104830003A0000004C00002000002041000020430E
:104840002B00000000D8CB452D000000253033643C
:1048500000000000200000002D2D2D0000B589B0C3
:1048600007A800F07FFA9DF822000E4909788842D7
:1048700001D109B000BD9DF822000A4908709DF8D9
:10488000220000909DF821309DF8202006A102A86A
:1048900002F0C0FD02AA0121084600F069FF00BF36
:1048A000E7E70000CE000020253032643A253032A0
:1048B000643A25303264000010B5FFF74FFC00F079
:1048C00067FF00F0E1FC01F087FF01F08FFC00F0D2
:1048D0000DF801F0D7F84FF4FA60FFF753FC00F041
:1048E000BFFE00F0C1FC01F034FD10BD10B500F0BA
:1048F00001F810BD08B50121102001F043FA4FF472
:104900004060ADF8000014208DF8030001208DF800
:1049100002006946014800F077F808BD0010014028
:1049200010B501F001FD062001F0CEFC01F006FDFE
:1049300010BD2DE9F04105460C460CB9BDE8F081EB
:10494000EEB2C6F58050A0421CD2284600F01FF8F7
:10495000C6F580500544C6F58050241AC4F30737C5
:1049600004E0284600F013F805F58055381EA7F13D
:104970000101CFB2F5D1C4F30B0030B1284600F0ED
:1049800006F802E0284600F002F800BFD6E710B5AE
:104990000446FFF7C5FF01F0C7FC202001F094FC9E
:1049A000C4F3074001F090FCC4F3072001F08CFC35
:1049B000E0B201F089FC01F0C1FC02F01BFCFFF742
:1049C00023FC10BD10B509E00C49898908034FF498
:1049D0008051FFF7AEFF002002F0C8F90748818937
:1049E0008089401E054A90810029EDD1002001F008
:1049F00063FD002001F054F810BD000048030020C2
:104A000010B500F0E3FB10BD2DE9F0410246002592
:104A10000026002000230024002791F803C00CF09A
:104A20000F0591F803C00CF0100CBCF1000F03D07F
:104A300091F802C04CEA050591F800C0BCF1000FE6
:104A400031D0146800202BE04FF0010C0CFA00F379
:104A5000B1F800C00CEA03069E4220D183004FF05B
:104A60000F0C0CFA03F7BC4305FA03FC4CEA0404F0
:104A700091F803C0BCF1280F06D14FF0010C0CFADD
:104A800000FCC2F814C00AE091F803C0BCF1480F62
:104A900005D14FF0010C0CFA00FCC2F810C0401C0C
:104AA0000828D1D31460B1F800C0BCF1FF0F34DD89
:104AB000546800202EE000F1080C4FF0010808FABD
:104AC0000CF3B1F800C00CEA03069E4221D183002A
:104AD0004FF00F0C0CFA03F7BC4305FA03FC4CEA49
:104AE000040491F803C0BCF1280F05D100F1080CB3
:104AF00008FA0CF8C2F8148091F803C0BCF1480F12
:104B000007D100F1080C4FF0010808FA0CF8C2F8C0
:104B10001080401C0828CED35460BDE8F08100000E
:104B2000F0B50A46002300240021002500F00046CD
:104B3000B6F1004F02D11D4EF16901E01B4E7168C4
:104B4000C0F3034583B200F44016B6F5401F08D108
:104B500021F07061154E766826F07066134F7E6006
:104B600012E000F48016B6F5801F06D1032606FA7F
:104B700005F4A14341F0706106E0460D360103FAE9
:104B800006F6B14341F0706122B1460D360103FAD9
:104B900006F6314300F00046B6F1004F02D1034E55
:104BA000F16101E0014E7160F0BD000000000140C4
:104BB0000246002093680B400BB1012000E000206A
:104BC000704741617047016170470AB1016100E0BF
:104BD0004161704710B500BF02210448FEF7DEFFB7
:104BE0000028F9D00148FEF7D5FF10BD0024014090
:104BF00070B504460D4620030822294601F071FADB
:104C000070BD70B50025002407E0204600F070FB61
:104C1000054605B103E0601CC4B2042CF5D300BF07
:104C2000284670BD2DE9FF4100F0E6F804462078E3
:104C3000012803D1042004B0BDE8F08120780028C9
:104C40006CD1684600F0A9F835490098FEF72CFCB5
:104C500004D20120334908700020ECE73049009865
:104C6000FEF72CFC09D22F48007830B100202D49E6
:104C7000087000F0E3F82C4A03C200F0DFF82B4A7A
:104C800003C22A48D0E900202749D1E90031D51ACA
:104C900060EB01014FF47A7200232846FEF764FAB4
:104CA00007463C220023FEF75FFA214A03C2204850
:104CB000D0E900305A1F70F1000001D20020BAE79D
:104CC0001B48D0E900210020D2F10502884108D21A
:104CD0001748D0E900200A3A70F1000001D2012003
:104CE000A9E71348D0E900320020D3F10A0190412E
:104CF00009D20F48D0E900200F21511A70F10000AD
:104D000001D2022097E70A48D0E900310020D3F110
:104D10000F02884101D203208DE700BF05208AE7FA
:104D200000004842C8000020B0000020B800002069
:104D3000C000002001488078704700003003002048
:104D400001484068704700003003002001480078A7
:104D500070470000A800002001480078704700005C
:104D6000E002002038B5044601F0F6F800F5E14015
:104D700000906846FEF7E2FB0546A88A00F26C70D8
:104D80002080287C401CA070287BE070287A20714D
:104D9000287960712878A07138BD1CB5044601A837
:104DA00000F052F801982060684600F015F838B11C
:104DB000BDF80000A081BDF80210E18101201CBDFA
:104DC0000020FCE770B504460D4620030C2229465E
:104DD00001F087F970BD0000014606480088088090
:104DE0000448408848800888C82801DD00207047B2
:104DF0000120FCE7DC02002010B5002416E004EBE3
:104E000044020C4B03EB8202118904EB440203EBD6
:104E100082025068FFF7CCFE18B100200649085501
:104E200002E0012004490855601CC4B2022CE6D3FC
:104E3000014810BD8C020020A4020020014908682E
:104E4000496870472802002001460548006808604C
:104E50000448007808B1012070470020FCE70000FA
:104E6000A8020020AC020020004870476803002020
:104E700008B50121102000F085FF0420ADF80000E6
:104E800000208DF8030069460148FFF7BDFD08BD0D
:104E90000010014008B50121042000F073FF4FF419
:104EA0000070ADF8000018208DF8030003208DF885
:104EB000020069460748FFF7A7FD4FF48060ADF890
:104EC000000048208DF8030069460248FFF79CFD6A
:104ED00008BD00000008014008B50121082000F0CD
:104EE00051FF4FF45040ADF8000010208DF8030042
:104EF00003208DF8020069461048FFF785FD4FF446
:104F000000410E48FFF75FFE4FF480410B48FFF76A
:104F10005AFE4FF480510948FFF755FE4FF40050F8
:104F2000ADF8000048208DF8030003208DF8020042
:104F300069460248FFF768FD08BD0000000C01400B
:104F400000BFFEE710B500F0B1FD1948007819491F
:104F50000978884205D002F04DFF164800781449C0
:104F6000087014480078062820D2DFE800F0030813
:104F70000D12171C01F05CFFFFF754FA16E001F068
:104F800057FFFFF7BBFA11E001F052FFFFF7E8F916
:104F90000CE001F04DFFFFF763FA07E001F048FF76
:104FA000FFF758FA02E001F023FF00BF00BF10BD79
:104FB000CD000020C900002070B500244FF400612E
:104FC0001248FFF700FE00251BE04FF480610F48F8
:104FD000FFF7F9FD0420FFF7E1F86006040E4FF437
:104FE00000610A48FFF7E4FD08B1601CC4B24FF449
:104FF00080610648FFF7E5FD0420FFF7CFF8681C45
:10500000C5B2082DE1DB204670BD00000010014054
:1050100010B54FF400610E48FFF7D3FD0420FFF7F1
:10502000BDF84FF480610A48FFF7CDFD0420FFF77B
:10503000B5F84FF480610648FFF7C3FD0420FFF781
:10504000ADF84FF400610248FFF7BDFD10BD000050
:105050000010014070B50446002524E004F08000F3
:1050600028B14FF400611148FFF7ADFD04E04FF4A3
:1050700000610E48FFF7A5FD6006040E0420FFF74F
:105080008DF84FF480610948FFF79DFD0420FFF77C
:1050900085F84FF480610548FFF793FD0420FFF782
:1050A0007DF8681CC5B2082DD8DB70BD001001402A
:1050B00010B54FF400610B48FFF785FD0420FFF7A2
:1050C0006DF84FF480610748FFF77DFD0420FFF77E
:1050D00065F84FF480610348FFF773FD0420FFF784
:1050E0005DF810BD0010014010B54FF400610E488E
:1050F000FFF769FD4FF480610B48FFF764FD042062
:10510000FFF74CF84FF400610748FFF75AFD042001
:10511000FFF744F84FF480610348FFF752FD042085
:10512000FFF73CF810BD00000010014010B54FF42F
:1051300000610A48FFF745FD0420FFF72FF84FF400
:1051400080610648FFF73FFD0420FFF727F84FF482
:1051500000610248FFF737FD10BD0000001001405C
:1051600010B500244FF400611348FFF72CFD042014
:10517000FFF714F84FF480610F48FFF724FD042077
:10518000FFF70CF807E0601CC4B2FA2C03DDFFF750
:10519000CDFF002010BD4FF400610748FFF708FD68
:1051A0000028F0D14FF480610348FFF70AFD042086
:1051B000FEF7F4FF0120EDE7001001404CF6CC4073
:1051C0000149086070470000003000404AF6AA20FC
:1051D0000149086070470000003000400149486004
:1051E00070470000003000400149886070470000AF
:1051F0000030004001490860704700000030004066
:1052000010B54FF440514FF0006000F031FC62B631
:1052100010BD00000EB5684600F0BCFF70B1BDF8CF
:10522000000045F65A21884208D10A489DE80E0040
:105230000EC00849087A00F033FC0EBD054A064B43
:105240000BCB0BC2034802F0CFF800B9F5E700BF63
:10525000F3E7000030030020C88C000810B501F00F
:1052600079FA00F0B9FB10BD10B545F25550FFF7C3
:10527000C1FF0620FFF7B2FF40F22B10FFF7B4FF8B
:10528000FFF79CFF10BD000038B501210D2000F094
:1052900079FD01211448FFF743FC002420E004EBD2
:1052A0004401124A52F82100012100F06BFD04EB89
:1052B00044000E4901EB80000089ADF80000042095
:1052C0008DF8030002208DF8020004EB4401074A28
:1052D00002EB810148686946FFF796FB601CC4B287
:1052E000042CDCD338BD000000023000580200203E
:1052F0007CB5044604EB4402794B03EB820211892E
:1053000004EB440203EB82025068FFF751FC0546B0
:1053100004EB4400734911F8300030B101283DD04E
:1053200002285FD003287DD1C3E07DB9012004EBC2
:1053300044016C4A02F83100FFF780FD04EB44029F
:10534000684B03EBC202C2E90201C5E004EB440072
:10535000644901EBC0004078F8B1FFF76FFDCDE97B
:10536000000104EB44005F4901EBC000D0E90416E2
:10537000DDE900305A1A60EB06004FF49673002105
:105380009A1A814109D2002004EB4401554A02EBEC
:10539000C1014870601CC0B27CBD9DE0DDB9FFF763
:1053A0004DFDCDE9000104EB44004E4901EBC00086
:1053B000D0E90231DDE90020D21A60EB01000A23B6
:1053C00000219A1A81410CD2022004EB4401454A83
:1053D00002F8310005E0002004EB4401414A02F8E4
:1053E000310079E0EDB3002004EB44013D4A02F8BE
:1053F000310004EB4400114601EBC0004078401C32
:1054000004EB440102EBC101487004EB4400114677
:1054100001EBC000407801280BD1FFF70FFD04EB32
:10542000440200E051E02F4B03EBC202C2E9040149
:1054300052E0FFF703FDCDE9000104EB44002949E8
:1054400001EBC000D0E90423DDE900108A1A60EB0B
:1054500003004FF4967300219A1A814128D300204B
:1054600000E009E004EB44011E4A02EBC101487070
:1054700004F15100C0B28FE7FFF7E0FCCDE9000175
:1054800004EB4400174901EBC000D0E90231DDE92B
:105490000020D31A60EB01004FF47A720021D21A77
:1054A000814105D2032004EB44010E4A02F8310089
:1054B00012E04DB1002004EB44010A4A02F8310029
:1054C00004F18100C0B267E706E0002004EB44016C
:1054D000044A02F8310000BF00BF00205CE7000072
:1054E00058020020A004002008B50121042000F08B
:1054F00049FCF220ADF8000010208DF803000320D5
:105500008DF8020069462248FFF77EFAF021204814
:10551000FFF759FB0121102000F034FC3020ADF8DA
:10552000000010208DF8030003208DF8020069466A
:105530001848FFF769FA30211648FFF744FB0121AC
:10554000082000F01FFC40F20140ADF800001020E0
:105550008DF8030003208DF8020069460E48FFF71E
:1055600053FA40F201410C48FFF72DFB01210820BE
:1055700000F008FC0220ADF8000004208DF80300C4
:1055800003208DF8020069460348FFF73DFA08BD85
:105590000008014000100140000C014070B50446B5
:1055A00010211448FFF70DFB40211248FFF70BFBB9
:1055B000002517E010211048FFF703FB04F08000DE
:1055C00020B180210B48FFF7FEFA03E08021094853
:1055D000FFF7F7FA10210848FFF7F5FA6006040E06
:1055E000681CC5B2082DE5DB10210248FFF7EBFA75
:1055F00070BD0000000801400010014070B5044675
:1056000010211548FFF7DDFA40211348FFF7D9FABA
:1056100000251AE010211148FFF7D3FA04F08000AA
:1056200020B180210C48FFF7CEFA03E080210A4820
:10563000FFF7C7FA10210948FFF7C5FA0220FEF765
:10564000ADFD6006040E681CC5B2082DE2DB10211A
:105650000148FFF7B8FA70BD000801400010014092
:1056600010B5FFF741FF20212248FFF7ACFA2021B7
:105670002148FFF7A6FA1420FEF784FD20211E48DA
:10568000FFF7A1FA1420FEF77DFDE220FFF7B6FF39
:105690000520FEF777FD2C20FFF7B0FF0520FEF771
:1056A00071FD2E20FFF7AAFF0520FEF76BFD2F20CE
:1056B000FFF7A4FF0520FEF765FD2420FFF79EFFFE
:1056C0008120FFF79BFF1D20FFF798FFA220FFF727
:1056D00095FFC820FFF792FFA020FFF78FFF402023
:1056E000FFF78CFFAF20FFF789FF02F083FB01F08B
:1056F0009FFB10BD00100140000801402DE9F04162
:1057000004460D461646082704FB07F0C1B2324690
:10571000284602F08BFBBDE8F0812DE9F0470746F3
:105720000D461446D4F80090EEB216E0F806010ECD
:10573000304603F041F84FF0000809E099F8000006
:10574000FFF72CFF09F1010908F1010000F0FF0843
:10575000A0884045F2DC701CC6B2E088C11700EB9F
:10576000517105EBE101491CB142DFDCBDE8F08776
:105770002DE9F04104460D461646082704FB07F0C4
:10578000C1B23246284602F051FBBDE8F08100006C
:1057900038B500242FE004EB4401184A52F82100E8
:1057A000012100F0EFFA04EB4400144901EB800002
:1057B000008980B2ADF8000010208DF803000120B0
:1057C0008DF8020004EB44010C4A02EB81014868A9
:1057D0006946FFF719F904EB4402084B03EB820218
:1057E000128991B204EB440203EB82025068FFF786
:1057F000EAF9601CC4B2032CCDD338BD34020020BA
:1058000010B5044600212046FEF7D0FB1E2120469D
:10581000FEF7A0FC01212046FEF7C8FB10BD0000EA
:1058200070B504460D46054B022229462046FDF779
:10583000CCFCA91EA01CFEF7DDFA70BDDB3E000803
:1058400000BFFEE700B585B0142209496846FDF7A0
:105850000AFDFFF76FFA8DF80000FFF771FA01906B
:10586000684600F0A1F80348FEF79AFB05B000BDBA
:1058700044930008013F00082DE9F04706460C4616
:1058800015460027A046FFF7B7FA814600200DE035
:10589000A8F101011FFA81F8691E8DB219F80510EF
:1058A00001FA08F139438FB2411CC8B2A042EFDBC4
:1058B0003780BDE8F0871FB504466846FFF76DFAEC
:1058C0009DF8040000EB8000400020801FBD1FB544
:1058D00004466846FFF761FABDF80C0020801FBD42
:1058E0007FB504466846FFF758FA04490298FDF769
:1058F00036FD0546FDF7B1FD20807FBD000020414B
:105900007FB504466846FFF748FA04490098FDF75A
:1059100026FD0546FDF7A1FD20807FBD000020414A
:1059200010B504461CB9002001F04AFA02E000203C
:1059300001F066FA10BD10B504461CB9012001F053
:105940003FFA02E0012001F05BFA10BD10B50446F9
:10595000A0B20F49096808430D49086000F0E8FA51
:1059600047F6FF7000F010FB00F01EFB01214FF026
:10597000C05000F0E7F9012000F08AF80448006800
:1059800000F0F4FA00F010FB00F0DCFA10BD0000AB
:105990005C010020024901EA0041024A116070479F
:1059A0000000FFFF5C01002038B504460020009095
:1059B00021780246636802F043FC02F043FB03488F
:1059C000D4E90323A1680EC038BD00009404002070
:1059D00010B502F0A5FC10BD10B5FFF723F9C4B255
:1059E0002046FEF73DFA10BD7047000070B500215B
:1059F00000230F22C47804B3154C246804F4E06437
:105A0000C4F5E064210AC1F10403CA40447804FAF1
:105A100003F184781440214309010E4C0678A15506
:105A2000047804F01F050124AC4005786D11AD0029
:105A300005F1E025C5F8004109E0047804F01F05F0
:105A40000124AC40044D0678761145F8264070BD1F
:105A50000CED00E000E400E080E100E002490143D9
:105A6000024A1160704700000000FA050CED00E0EA
:105A7000024A0A400243024B1A60704780FFFF1F30
:105A800008ED00E010B500F00FFC10BD70470000FD
:105A9000014908627047000000000E427047000094
:105AA0000149088070470000DC02002010B5FFF7B4
:105AB000A8F8044672480078012835D1032C0DD18E
:105AC0006F480078401C6E4908700878C11700EBD9
:105AD00091718910A0EB8101694A1170012C05D1E7
:105AE00068484078401E40B266494870022C08D190
:105AF0006448407828B163484078401C40B261490E
:105B00004870832C09D100205F4908705C480078F8
:105B10005E49087005205A490870842C03D1FEF7AD
:105B200051FF02F067F9AAE055480078022836D103
:105B3000012057490870032C0DD151480078401CB2
:105B40004F4908700878C11700EB91718910A0EBDC
:105B500081014B4A1170012C08D14A48807828B144
:105B600048488078401E40B246498870022C09D1CE
:105B700044488078012805D042488078401C40B2D3
:105B800040498870832C7AD100203F4908703C48F6
:105B900000783E4908700520394908706FE03848A0
:105BA0000078032821D1032C0DD135480078401C02
:105BB000334908700878C11700EB91718910A0EB88
:105BC00081012F4A1170532C02D104202C490870F6
:105BD000832C54D100202C490870294800782B4987
:105BE000087005202649087049E0254800780428F7
:105BF0001CD1842C02D1032021490870012C08D12A
:105C00002048007928B11F480079401E40B21D4944
:105C10000871022C33D11B48007914282FD0194861
:105C20000079401C40B21749087128E014480078F8
:105C3000052808D11CB301201349087013480078C7
:105C40000F4908701BE0032C0DD10D480078401C53
:105C50000B4908700878C11700EB91718910A0EB0F
:105C60008101074A1170832C09D100200649087070
:105C7000034800780549087005200149087010BDE7
:105C8000C900002068030020CA000020CC000020CA
:105C9000CB00002070B504460D461646FEF740FEC8
:105CA00000F042FB022000F00FFBC4F3074000F0BD
:105CB0000BFBC4F3072000F007FBE0B200F004FB8D
:105CC00003E0287800F000FB6D1C301EA6F10106F1
:105CD000F7D100F033FB01F08DFA70BD09490A4A93
:105CE000128821F8120008490988491C064A1180C7
:105CF000114609880A2291FBF2F302FB1311024AB2
:105D00001180704700050020AE02002001460020EF
:105D1000034A506820F44040084350607047000038
:105D20000010024029B1064A52690243044B5A61ED
:105D300004E0034A52698243014B5A6170470000F4
:105D40000010024029B1064AD2690243044BDA61CD
:105D500004E0034AD2698243014BDA6170470000D4
:105D60000010024029B1064A12690243044B1A612D
:105D700004E0034A12698243014B1A617047000034
:105D80000010024029B1064A92690243044B9A610D
:105D900004E0034A92698243014B9A617047000014
:105DA0000010024029B1064AD2680243044BDA606F
:105DB00004E0034AD2688243014BDA607047000076
:105DC0000010024001490860704700004004424250
:105DD00030B500210022002400232D4D6D6805F010
:105DE0000C0121B1042905D0082923D105E0294D52
:105DF000056022E0274D05601FE0254D6D6805F424
:105E00007012234D6D6805F48034022505EB924233
:105E10001CB9214D554305600BE01D4D6D6805F41F
:105E200000351DB11C4D5543056002E0194D554329
:105E3000056002E0174D056000BF00BF144D6D689E
:105E400005F0F0010909154D6B5C0568DD40456002
:105E50000F4D6D6805F4E061090A104D6B5C4568F3
:105E6000DD4085600A4D6D6805F46051C90A0B4D2F
:105E70006B5C4568DD40C560054D6D6805F44041CB
:105E8000890B074D6B5CC568B5FBF3F5056130BD4B
:105E90000010024000127A0000093D0004030020B7
:105EA0001403002010B501460022002300204A11EF
:105EB000012A02D1094C236806E0022A02D1074CCC
:105EC000236A01E0054C636A01F01F02012494403B
:105ED0001C400CB1012000E0002010BD0010024069
:105EE00000210B4A11700A4A203A82F8201001283A
:105EF00002D0042808D103E00121054A117004E012
:105F00000521034A117000E000BF00BF7047000088
:105F10002010024001490860704700003C044242E2
:105F20000249096A0143014A1162704700100240A8
:105F30000348008840F010000149088070470000C5
:105F400004280040034800884FF6EF7108400149DB
:105F50000880704704280040002103480188001F82
:105F6000008841EA004070471C28004000B5024606
:105F7000FFF7DEFF100C03490880091D0A80FFF7B8
:105F8000E1FF00BD1828004000B50246FFF7D0FF32
:105F9000C2F3034003490880091D0A80FFF7D2FFBE
:105FA00000BD00000828004000BF0348008800F042
:105FB00020000028F9D070470428004007480088D6
:105FC0004FF6F77108400549088000BF0348008874
:105FD00000F008000028F9D07047000004280040B5
:105FE0002DE9F04107460C4615462A46214638461B
:105FF00000F038F810B90020BDE8F081691E204695
:10600000FDF74EFF0646681E205CB04201D000201E
:10601000F2E70120F0E700002DE9F04107460C46C9
:10602000154617B90220BDE8F08100260C4E601914
:10603000A0F58078FF2C0EDD6019B0F5817F0ADCB9
:10604000706828B11FFA88F2294638467368984765
:106050001EB90120E7E70120E5E70020E3E70000A3
:106060005401002070B506460C4615467019B0F56F
:10607000807F00DC0CB9002070BDFFF735F8A02050
:10608000FEF7E8FFFFF76CF800B926E03046FEF7B0
:10609000E1FFFFF765F800B91FE0FFF725F8A12041
:1060A000FEF7D8FFFFF75CF800B916E0681E85B26E
:1060B00005E0FEF781FF04F8010BFEF7A9FF281E9B
:1060C000A5F101018DB2F4D1FEF776FF2070FEF745
:1060D000EFFFFFF72BF80120CEE7FFF727F80020AE
:1060E000CAE72DE9F04104460E46174600F01CF9B8
:1060F000032000F0E9F8C4F3074000F0E5F8C4F32A
:10610000072000F0E1F8E0B200F0DEF8002504E03E
:10611000FF2000F0D9F870556D1CBD42F8D300F097
:106120000DF9BDE8F08100002DE9F0478046894671
:10613000174617B90220BDE8F087002423E00025A8
:1061400000261AE0124800EB0610408808EB040114
:10615000884200D010E00E4800EB0615287800F0C9
:10616000010008B90220E6E7A86820B1022202FB7C
:106170000470A968884700BF761C082EE2D30DB9C9
:106180000120D8E7641C4C45D9D30020D3E7000098
:10619000D400002070B504460C252A462146002074
:1061A000FFF71EFF08B1012070BD2A46214680205E
:1061B000FFF716FF08B10120F6E70020F4E7000022
:1061C00010B504462078401E074908700978080376
:1061D0000121FEF7AEFB0449097808030C22214691
:1061E00001F07FF810BD00003000002010B5002441
:1061F0000420FDF717FE45F65A21884244D00121BC
:106200004FF0C050FFF79EFD0120FFF741FCFDF766
:1062100000FE0120FFF764FE04E0601CC4B20A2007
:10622000FDF7B0FF4120FFF73DFE0028F5D0FA2C26
:1062300000DB10BD4FF48070FFF772FE0120FFF706
:1062400069FEFFF7B1FEFFF7B9FEFFF7ADFEFFF7FE
:106250006FFE47F6FF70FFF797FEFFF7A5FE0121DF
:106260004FF0C050FFF76EFD0120FFF711FC0D4805
:10627000FFF77CFEFFF798FEFFF764FE45F65A2114
:106280000420FDF7DDFDD4E701214FF0C050FFF7FA
:1062900059FD0120FFF7FCFBFFF790FEFFF784FE9E
:1062A00000BFC6E72D42506610B5FEF715FE4FF44D
:1062B00080510448FEF787FC4FF400410148FEF787
:1062C00080FC10BD000C014070B50446002500267E
:1062D00023E004F0800028B14FF480411148FEF71C
:1062E00072FC04E04FF480410E48FEF76AFC600641
:1062F000040E4FF400410B48FEF765FC6806050EDE
:106300004FF400510748FEF753FC05434FF400419A
:106310000448FEF756FC701CC6B2082ED9DB28468E
:1063200070BD0000000C014010B54FF480510248D0
:10633000FEF747FC10BD0000000C014010B54FF403
:1063400080510248FEF73FFC10BD0000000C0140E8
:10635000704710B500F0C4FC00F056F910BD10B540
:1063600000F0C4FC00F09CF900F018F910BD10B565
:10637000FFF7F5FFFEF744FB10BD00003EB50446F5
:1063800012488078A04201D101203EBD0F4AD2E9D7
:1063900000109268CDE9010200918DF8024020467C
:1063A00002F086F908B10020EFE7684601F01CF81A
:1063B00028B90649887802F07BF90020E5E7034810
:1063C0009DE80E000EC00120DFE700003003002032
:1063D00010B500F001F810BD0CB500200190009040
:1063E0003348006840F480303149086000BF3048CD
:1063F000006800F4003000900198401C0190009863
:1064000018B90198B0F5A06FF1D12948006800F4DF
:10641000003010B10120009001E0002000900098B1
:10642000012843D12348006840F01000214908604A
:106430000846006820F0030008600846006840F045
:10644000020008601A4840681949486008464068D8
:1064500048600846406840F48060486008464068EC
:1064600020F47C1048600846406840F4E81048601A
:106470000846006840F08070086000BF0C48006863
:1064800000F000700028F9D00948406820F00300AF
:10649000074948600846406840F00200486000BF75
:1064A0000348406800F00C000828F9D10CBD00003A
:1064B00000100240002002403EB504466846FFF747
:1064C00069FE8DF80840684600F08EFF08B900208C
:1064D0003EBD0120FCE7000000B58BB01749C8693C
:1064E0000121FFF71FFC1549086AFDF76BFD1448F1
:1064F000009014480190002002901E20039000207C
:1065000004908020059000200690079008904FF49A
:106510008050099000200A900849086A6946FDF7F2
:10652000FBFD064901220868402100F0FFFC0349F9
:10653000086AFFF765F90BB000BD0000B802002043
:10654000044400401405002008B51349886801215F
:10655000FFF718FC1048008A80B2ADF80000182040
:106560008DF8030003208DF802000B49C8686946C6
:10657000FEF74AFA0848808A80B2ADF8000004208D
:106580008DF8030001208DF802000349C8686946B0
:10659000FEF73AFA08BD0000B80200202DE9F041EC
:1065A0001548FEF7FAFBFEF7D7FB18B312488089AF
:1065B000124908801049C889FCF74AFF07464FF086
:1065C0007E51FCF7CCFE06460D49FCF7FAFE054667
:1065D0000C49FCF7C4FE0446FCF73FFF074948801E
:1065E0000878FFF769FF0548001DFEF7BBFB03486D
:1065F000FFF7E6FDBDE8F081480300203C030020E2
:106600000000A0410000204110B5FFF79DFF4FF4AE
:10661000E13000F003F8FFF75FFF10BD10B586B062
:1066200004461E4948680121FFF78CFB1B49086896
:1066300000F086FC02940020ADF80C00ADF80E00CE
:10664000ADF81000ADF814000420ADF812001349A5
:10665000086802A900F01EFD10490122086840F2F6
:10666000244100F0F2FC4FF4C060FFF7F7F90B484B
:10667000007E8DF8040000208DF805008DF80600DE
:1066800001208DF8070001A8FFF7B0F90349086859
:10669000012100F03FFC06B010BD0000B802002050
:1066A0001C480078AA2803D000201B4908707047B6
:1066B00018480078AA282AD10120174908701748DD
:1066C0000088401C1549088008460088C82801DD5C
:1066D000012008800F488178407801EB00201049A4
:1066E00008600C480179C07801EB00200D49086072
:1066F0000B4800680968884202D90948006801E02F
:10670000084800680549488000200249087000BF19
:10671000CDE7000014050020E0020020DC0200208C
:10672000E4020020E802002008B501210420FFF760
:1067300029FB4FF48070ADF8000010208DF80300A5
:1067400001208DF8020069460148FEF75DF908BD99
:10675000000801402DE9F041FEF74EFB06460024FB
:1067600031E00127305D384008B1012000E0002011
:106770000546F5B11648005DD8B901201449085501
:10678000611CC8B200F03CFB124901EBC400FEF7EB
:10679000E9FA04F2011108030821FEF7CAF80D4ACC
:1067A00002EBC40104F201121003082200F099FD6B
:1067B00007E035B9002006490855611CC8B200F051
:1067C000FFFA601CC4B2022CCBDBBDE8F0810000F4
:1067D000A40000205803002038B5002420E004EB7A
:1067E0004401114A52F821000121FFF7CBFA04EBD2
:1067F00044000D4901EB80000089ADF80000042041
:106800008DF8030002208DF8020004EB4401064AD3
:1068100002EB810148686946FEF7F6F8601CC4B2D5
:10682000022CDCD338BD00008C02002010B50948D2
:1068300002684068521C40F1000006490A60486046
:106840000548006800B910BD03480068804700BFD4
:10685000F9E70000280200203002002030B5164879
:1068600000684FF47A72B0FBF2F1B1F1807F01D38E
:1068700001201DE021F07F40401E4FF0E0225061DA
:1068800050170F22002807DA13071D0E0B4B00F0DC
:106890000F04241F1D5503E013071C0E084B1C5446
:1068A00000BF00204FF0E02290610720106100201F
:1068B00008B100BFFEE730BD1803002018ED00E06E
:1068C00000E400E010B51348006840F001001149F1
:1068D000086008464068104908400E49486008466C
:1068E00000680E4908400B4908600846006820F41B
:1068F000802008600846406820F4FE0048604FF49D
:106900001F008860FFF764FD4FF0006004490860D5
:1069100010BD0000001002400000FFF8FFFFF6FE6F
:1069200008ED00E010B50121074800F015F948B165
:106930000121054800F00DF80021034800F026F978
:1069400001F06CFF10BD0000000C0040CA43028241
:106950007047CA430282704721B1028842F00102A7
:10696000028004E002884FF6FE731A4002807047EE
:1069700010B504466848844208D10121C014FFF7CD
:1069800011FA0021E014FFF70DFAC4E0B4F1804FD2
:1069900008D101210846FFF7E5F900210120FFF7A2
:1069A000E1F9B8E05D48844208D101210220FFF7F7
:1069B000D9F900210220FFF7D5F9ACE0584884420C
:1069C00008D101210420FFF7CDF900210420FFF7B1
:1069D000C9F9A0E05348844208D101210820FFF7FB
:1069E000C1F900210820FFF7BDF994E04E48844228
:1069F00008D101211020FFF7B5F900211020FFF781
:106A0000B1F988E04948844208D101212020FFF7EC
:106A1000A9F900212020FFF7A5F97CE04448844231
:106A200008D101214014FFF7BDF900216014FFF7E0
:106A3000B9F970E03F48844209D10121C804FFF749
:106A4000B1F900214FF40020FFF7ACF963E03A48B8
:106A5000844209D101210805FFF7A4F900214FF470
:106A60008010FFF79FF956E03448844209D1012194
:106A70004805FFF797F900214FF40010FFF792F94E
:106A800049E02F48844208D101214020FFF76AF9EC
:106A900000214020FFF766F93DE02A48844208D1F2
:106AA00001218020FFF75EF900218020FFF75AF9CD
:106AB00031E02548844208D101218015FFF752F9C1
:106AC0000021A015FFF74EF925E02048844209D1A6
:106AD00001210804FFF766F900214FF48030FFF729
:106AE00061F918E01A48844209D101214804FFF7EE
:106AF00059F900214FF40030FFF754F90BE0154825
:106B0000844208D101218804FFF74CF900214FF499
:106B10008020FFF747F910BD002C01400004004021
:106B200000080040000C004000100040001400402D
:106B300000340140004C014000500140005401402D
:106B400000180040001C00400020004000400140B0
:106B5000004401400048014030B5024600200023B7
:106B60000024158A05EA0103958905EA010413B199
:106B70000CB1012000E0002030BD1AB183890B4325
:106B8000838102E083898B438381704781847047CE
:106B9000002202881D4B98420ED01D4B98420BD00C
:106BA000B0F1804F08D01B4B984205D01A4B984249
:106BB00002D01A4B984204D14FF68F731A404B887B
:106BC0001A43174B984207D0164B984204D04FF601
:106BD000FF431A40CB881A4302808B8883850B8839
:106BE00003850A4B98420BD0094B984208D00E4BB4
:106BF000984205D00D4B984202D00D4B984201D1DE
:106C00000B7A03860123838270470000002C014029
:106C1000003401400004004000080040000C004027
:106C200000100040001400400040014000440140BA
:106C30000048014010B5002413E004EB44000A4969
:106C400011F8200058B1002004EB4401064A02F874
:106C5000210004EB440102EB810188688047601C3D
:106C6000C4B2042CE9D310BD0000002000202BE0AA
:106C700000EB4001164A02EB8101498811B300EB99
:106C8000400102EB81014988491E00EB4002104B94
:106C900003EB8202518000EB40011A4602EB8101B6
:106CA000498879B9012100EB400203F8221000EB7A
:106CB00040011A4602EB8101898800EB400203EB98
:106CC00082025180411CC8B20428D1D37047000011
:106CD00000000020014908607047000030020020D9
:106CE00010B5FEF7C5F8FDF707F810BD2DE9F04126
:106CF000FDF770FF05462846FDF742F80646304688
:106D0000FEF7ECFF15480088401C1449088008462F
:106D1000008803280BDA12490888FCF799FB04461F
:106D20001049FCF74EFB10490860BDE8F0810B48A4
:106D300000880A2802DD0A200849088007480188DF
:106D40000748FEF76DFD0746FCF782FB0446054940
:106D5000FCF737FB0449086000BFE6E7B0020020FB
:106D60000005002000002041A802002070B5044664
:106D7000032C00D370BD04EB4402104B03EB8202E2
:106D8000128991B204EB440203EB82025068FDF7D2
:106D90000FFF0546C5F10100C5B204EB4402074BE5
:106DA00003EB8202128991B204EB440203EB8202EC
:106DB00050682A46FDF709FF00BFDBE734020020D8
:106DC00010B50446032C00D310BD04EB4402074B5E
:106DD00003EB8202128991B204EB440203EB8202BC
:106DE0005068FDF7F0FE00BFEEE70000340200201F
:106DF00010B502210148FDF7E4FE10BD0008014076
:106E000010B50446032C00D310BD04EB4402074B1D
:106E100003EB8202128991B204EB440203EB82027B
:106E20005068FDF7CEFE00BFEEE700003402002000
:106E300010B502210148FDF7C6FE10BD0008014053
:106E400010B50F49086840F2255100F0D4F838B168
:106E500001F0ECFC0A49086840F2255100F04BF8BB
:106E60000749086840F2266100F0C5F838B101F022
:106E7000E5FC0349086840F2266100F03CF810BDCB
:106E8000F002002010B51449086840F2244100F0D7
:106E9000B2F8F8B11049086840F2244100F02BF82C
:106EA0000D49086800F062F90B49086AFDF730F9EE
:106EB000C0F11E00094908800A461288C2F11E016D
:106EC000074A064B1B88D018FCF7E6F90249086A06
:106ED000FEF796FC10BD0000B8020020B4020020AE
:106EE0001405002001F40072B2F5007F00D100BF4C
:106EF000CA430280704710B50022002340F66A148E
:106F0000A14200D100BF0A1201249440A3B2DC4385
:106F1000048010BD21B1828942F40052828104E0D4
:106F200082894DF6FF731A40828170471AB1838AB5
:106F30000B43838202E0838A8B4383827047000085
:106F400010B504462048844209D101218803FEF788
:106F500029FF00214FF48040FEF724FF32E01B4858
:106F6000844209D101214804FEF7FCFE00214FF4C0
:106F70000030FEF7F7FE25E01548844209D10121D3
:106F80008804FEF7EFFE00214FF48020FEF7EAFEB2
:106F900018E01048844209D10121C804FEF7E2FE3E
:106FA00000214FF40020FEF7DDFE0BE00A4884428A
:106FB00008D101210805FEF7D5FE00214FF480100D
:106FC000FEF7D0FE10BD0000003801400044004034
:106FD00000480040004C00400050004002460020A5
:106FE000B1F5007F00D100BF13880B400BB1012029
:106FF00000E00020704770B5024600240023002501
:10700000002040F66A16B14200D100BFC1F342151C
:1070100001F01F03012606FA03F3012D02D1968920
:10702000334006E0022D02D1168A334001E0968AF1
:1070300033400C12012606FA04F41688344013B1CA
:107040000CB1012000E0002070BDF0B50346002423
:1070500000260025002040F66A17B94200D100BF83
:107060001846C1F3421401F01F06012707FA06F57E
:10707000012C01D10C3004E0022C01D1103000E0D1
:1070800014301AB107682F43076002E00768AF4366
:107090000760F0BD2DE9F04786B005460E46002496
:1070A000A24600BFA1460027B08900B100BF2F460D
:1070B0002C8A4CF6FF700440F08804432C82AC8983
:1070C0004EF6F3100440B0883189084371890843B3
:1070D0000443AC81AC8A4FF6FF400440B0890443BE
:1070E000AC8201A8FEF774FE1F48874202D1DDF88A
:1070F00010A001E0DDF80CA0A88900F4004040B128
:107100000AEBCA0000EB0A1031684900B0FBF1F845
:1071100007E00AEBCA0000EB0A1031688900B0FBF7
:10712000F1F86420B8FBF0F004012009642101FBB0
:107130001089A88900F4004040B1322000EBC9005A
:10714000B0FBF1F000F00700044308E0322000EB50
:1071500009106421B0FBF1F000F00F0004432C8112
:1071600006B0BDE8F087000000380140014688887D
:10717000C0F308007047C1F3080282807047000026
:1071800010B586B0044601218803FEF7FBFD1649C1
:107190000868FFF7D5FE02940020ADF80C00ADF8AA
:1071A0000E00ADF81000ADF814000C20ADF8120080
:1071B00002A90E48FFF76EFF4FF4C060FEF74EFCC9
:1071C00025208DF8040000208DF805008DF80600BC
:1071D00001208DF8070001A8FEF708FC01210348F3
:1071E000FFF798FE06B010BDF00200200038014005
:1071F00000BFFEE710B50A4CFFF796F80520FFF731
:1072000063F802E0641E04B906E0FF20FFF75CF8B3
:1072100000F001000028F5D100BFFFF78FF810BD86
:10722000A086010070B506460C461546691E20462C
:10723000FCF736FE691E60542A462146304600F0AF
:1072400005F808B9002070BD0120FCE72DE9F047E2
:1072500006460F46904606EB0800B0F5807F00DC3E
:1072600017B90020BDE8F087354600242FE014B19F
:1072700005F0070000BBFDF759FF4FF000090CE0D7
:10728000FDF732FFA020FDF7E5FEFDF769FF00B135
:1072900006E009F101001FFA80F9B9F1640FEFDB94
:1072A00000BFB9F1640F00D117E02846FDF7D2FE08
:1072B000FDF756FF00B910E0385DFDF7CBFEFDF796
:1072C0004FFF00B909E0681CC5B2601C84B2444598
:1072D000CDDBFDF72BFF0120C4E7FDF727FF0020E2
:1072E000C0E72DE9F04106460F461446F5B2C5F554
:1072F0008070A0422AD2C5F5807239463046FEF72A
:10730000C9FCC5F580700644C5F580700744C5F515
:107310008070241AC4F307280BE04FF480723946BA
:107320003046FEF7B7FC06F5807607F58077A4F5C2
:107330008074B8F10000A8F1010101F0FF08ECD160
:10734000224639463046FEF7A5FC04E0224639467F
:107350003046FEF79FFCBDE8F08100002DE9F047C4
:1073600081468A46164616B90220BDE8F0870025F8
:1073700034E0002400272BE01A4800EB0710408877
:1073800009EB0501884200D021E0164800EB071404
:10739000207800F0020008B90220E6E716F8150090
:1073A0004FF47F4101EA00206900491C715C40EA0A
:1073B0000108A088404502DCE088404501DA02204F
:1073C000D3E7E06810B14046E168884700BF7F1C02
:1073D000082FD1D30CB90120C7E76D1C5545C8D380
:1073E0000020C2E7D400002070B504460C25802D93
:1073F00001DD002070BD2A4621460020FFF712FF64
:1074000008B90020F6E72A4621468020FFF70AFF48
:107410000120EFE70FB4084B10B504A902AA0398A6
:1074200000F02CF9044602A9002000F0BEFC204622
:1074300010BC5DF814FB0000AB7D00080EB50746DC
:107440000E46144619491AA001F050F9174938465A
:1074500001F04CF915491CA001F048F913493046D8
:1074600001F044F911491AA001F040F903AD0021DF
:10747000681E054601700A21681E054601700CE071
:107480000A2094FBF0F100FB11403030C1B2681EBD
:10749000054601700A2094FBF0F4002CF0DC03494F
:1074A000284601F023F900F085FC00002C030020A1
:1074B0002A2A2A20617373657274696F6E2066616F
:1074C000696C65643A2000002C2066696C652000B8
:1074D0002C206C696E65200002E008C8121F08C1EC
:1074E000002AFAD170477047002001E001C1121F45
:1074F000002AFBD1704700002DE9FF5F82B0002118
:10750000DDE90430020DDDF840B0034318D044F645
:107510001050A2F2FF3242431514119801281FD0D7
:10752000A5EB0B00401C5FEA000A4FF000064E4F2F
:10753000DFF83891B046504615D5CAF1000413E083
:10754000119801244AA3012801D16FEA0B01029886
:10755000119AC0E90031C0E9024206B0BDE8F09FCF
:10756000CBF10000DFE704460021404A491842EB16
:107570000450CDE9001012E0E00707D032463B4648
:1075800040464946FCF704F98046894632463B4668
:1075900010461946FCF7FCF806460F466410002C0E
:1075A000EAD1DDE90401DDE90023BAF1000F06DAD2
:1075B000FCF7EEF842464B46FCF7EAF805E0FCF72C
:1075C00059F942464B46FCF755F904460E4600224F
:1075D000284BFCF7D7F903D84FF0FF30014607E0FE
:1075E0000022254B20463146FCF72BF8FCF7B1F979
:1075F000102409E0002C0ADB0A220023FBF7B4FD6B
:10760000039B30321A55641E50EA0102F2D1641C09
:10761000039AC4F111031444119A012A03D00122E0
:1076200008430DD10AE0084304D000204FF0110BAD
:10763000119072E7A3EB0B056D1E0DE05B4504DDB9
:107640004FF0000205F1010504E003DA4FF00002FB
:10765000A5F10105002AECD002981199C0E9023188
:10766000C0E9004579E70000000014400000F03F49
:10767000300000000000F0430000E03F2DE9FF4F24
:1076800095B09B468946064600250FE2252877D10E
:1076900000242746F84A0121059400E0044316F827
:1076A000013F203B01FA03F01042F7D130782A283D
:1076B00011D06FF02F033078A0F13002092A16D8CC
:1076C000059A44F0020402EB820203EB42021044EA
:1076D000761C0590EFE759F8042B0592002A03DA8F
:1076E000504244F40054059044F00204761C307873
:1076F0002E2816D116F8010F44F004042A280DD0C4
:107700006FF02F023078A0F13003092B09D807EB76
:10771000870302EB4303C718761CF3E759F8047B91
:10772000761C30786C280FD006DC4C2817D06828DF
:107730000DD06A2814D104E0742810D07A280FD113
:107740000DE044F400140AE044F4801401E044F431
:1077500040147278824202D104F58014761C761CA3
:10776000307866280BD013DC582877D009DC002845
:1077700075D04528F6D04628F4D047281AD19DE187
:1077800018E0632835D0642879D0652812D195E1B6
:10779000702873D008DC6728F1D069286FD06E2874
:1077A0000DD06F2806D1B5E073282CD0752875D080
:1077B000782874D05A46179990476D1C75E1C4F328
:1077C0000250022809D003280DD0D9F8001004284F
:1077D0000DD00D6009F1040967E1D9F80010EA172E
:1077E000C1E90052F6E7D9F800100D80F2E70D70FC
:1077F000F0E719F8041B8DF8001000208DF8010047
:10780000EA46012003E059F804AB4FF0FF3061076E
:107810004FF0000102D40DE008F101018846B942A1
:107820000FDA8045F8DB1AF808100029F4D108E0D7
:1078300008F1010188468142FADB1AF80810002994
:10784000F6D105985B46A0EB080721463846179A03
:1078500000F094FA284400EB080507E04DE029E128
:107860000DE01AF8010B5A4617999047B8F1010834
:10787000F7D25B4621463846179A13E142E00A22C6
:107880000092C4F302524FF0000A022A08D059F8BD
:1078900004CB032A4FEAEC710AD00DE029E02AE07C
:1078A00009F1070121F00702F2E802C1914609E05F
:1078B0000FFA8CFC4FEAEC71042A03D14FFA8CFCCE
:1078C0004FEAEC71002907DA0A460021DCF1000CCE
:1078D00061EB02012D2202E0220504D52B228DF856
:1078E0000420012203E0E20701D02022F7E79046BE
:1078F00059E00A2102E010220DE010214FF0000AA9
:1079000000910BE010224FF0000A44F00404082715
:10791000009203E008224FF0000A0092C4F30252E2
:10792000022A05D059F804CB0021032A08D009E027
:1079300009F1070121F00702F2E802C1914605E0D2
:107940001FFA8CFC042A01D10CF0FF0C4FF0000848
:10795000220728D5702806D0009B83F0100353EA35
:107960000A0305D00EE040228DF80420012208E031
:107970005CEA010206D030228DF804208DF8050063
:1079800002229046009B83F0080353EA0A030AD1BF
:107990005CEA010201D1620705D530228DF804208E
:1079A0004FF001087F1E582804D034A003900EA881
:1079B00002900DE036A0F9E753466046009AFBF7C7
:1079C000D3FB84460398825C0298401E02900270AA
:1079D0005CEA0100F0D1029806A9081A00F1200A19
:1079E000600702D524F4803400E00127574502DD0A
:1079F000A7EB0A0000E0002000EB0A0100900598C8
:107A00004144401A0590E00306D45B462146179A8C
:107A1000059800F0B3F90544002706E001A85A468E
:107A2000C05D179990476D1C7F1C4745F6DBE0034E
:107A30000CD55B462146179A059800F09FF905443E
:107A400004E030205A46179990476D1C0099481E53
:107A500000900029F5DC08E0029802995A46007867
:107A6000491C0291179990476D1CBAF10001AAF1C7
:107A7000010AF1DC65E100000928010030313233F0
:107A8000343536373839616263646566000000005A
:107A90003031323334353637383941424344454644
:107AA0000000000000F058F90544761C30780028EA
:107AB0007FF4ECAD19B02846BDE8F08F620700D422
:107AC000062709F1070222F0070CFCE80223E14631
:107AD00003F000485FEA080C02D00FF2702C0DE0B2
:107AE0005FEA045C02D50FF2682C07E05FEAC47C11
:107AF00002D00FF2602C01E0AFF2700C4FF0FF38B3
:107B000023F00043CDF850C065280CD006DC452892
:107B100009D046281DD047283DD13DE0662818D021
:107B200067287ED138E00021112F01DB112000E011
:107B3000781CCDE9000106A90EA8FFF7DDFCDDE900
:107B40000F010E9A03910021009207F1010A04919E
:107B50004DE04FF000400097CDE9011006A90EA8B6
:107B6000FFF7CAFCDDE90F0203920E9B1199002278
:107B7000DDF80CA00093049211B9791C00EB010A06
:107B8000B7EB0A0004D4C0F1FF3007F1010A0490FA
:107B9000AAEB0700019044E0012F00DA0127002141
:107BA000112F01DD112000E03846CDE9000106A9C2
:107BB0000EA8FFF7A1FCDDE90F010E9A0391002149
:107BC00004910092BA4621070CD40399514500DA7A
:107BD0008A46BAF1010F05DD009AAAF10101515C54
:107BE000302908D0B84202DA10F1040F06DA012178
:107BF000CDE9011015E0AAF10101E9E7002805DC53
:107C0000049901440491AAEB000102E0411C514592
:107C100000DD8A460499401A401C01904FF0004054
:107C20000290200704D40198504501DBCDF8048070
:107C300000208DF84F0002980DF14F07B0F1004F72
:107C400025D02B200E9002984FF0020800280CDA65
:107C5000404202902D200E9007E00A210298FBF787
:107C600037FC3031029007F8011DB8F10001A8F18E
:107C70000108F2DC02980028EFD1791E0E980870F6
:107C8000307800F0200040F0450007F8020D12A8FF
:107C9000C01B00F107081498007800B1012000EB28
:107CA0000A01019801EBE07105984144401A401E19
:107CB0000590E00306D45B462146179A059800F02C
:107CC0005DF805441498007818B15A461799904702
:107CD0006D1CE00324D55B462146179A059800F0F9
:107CE0004DF805441CE00498002807DBDDE903019A
:107CF000884203DD0098405C179901E01799302015
:107D00005A469047049805F10105401C04900198DB
:107D1000401E019004D12E205A46179990476D1CA1
:107D2000BAF10001AAF1010ADDDC05E017F8010B48
:107D30005A46179990476D1CB8F10001A8F1010847
:107D4000F4DC5B462146179A0598ABE62D0000004F
:107D50002B000000200000002DE9F0410446002522
:107D60001E461746880404D405E039462020B04753
:107D70006D1C641EF9D52846BDE8F0812DE9F0415F
:107D8000044600251E469046C80301D5302700E072
:107D90002027880404D505E041463846B0476D1CCD
:107DA000641EF9D52846BDE8F0810A68531C0B60B3
:107DB0001070704700BFFEE770B5044620210C48E4
:107DC000FCF701FFA5780FE02178284600F0F4FCCD
:107DD000267804E00020FDF7E1FB701CC6B2A08805
:107DE000B042F7DC681CC5B2E088A842ECDC70BD8C
:107DF0000010014070B520210B48FCF7E4FE002480
:107E00000FE0611CC8B2012100F0D6FC002504E09F
:107E10000020FDF7C3FB681CC5B2802DF8DB601C99
:107E2000C4B2082CEDDB70BD001001402DE9F04715
:107E30008EB082460E4615460024A6E0285DB02886
:107E400036DB285DF72833DC601C285CA1282FDB9B
:107E5000285DB0385E2148434F490860601C285CAB
:107E600000F2AD20096808444B49086008460068E4
:107E70004001086008460068C0F3074708460088CC
:107E8000C0F30728084690F80090202006AB4A4629
:107E900041460090384600F059FC06AA314650464B
:107EA00000F07EF8A01CC4B206F11000C6B26CE06F
:107EB000285DA12835DB285DA32832DC601C285C06
:107EC000A1282EDB285DA1385E2148433249086095
:107ED000601C285CA138096808442F4908600846DE
:107EE00000684001086008460068C0F3074708467C
:107EF0000088C0F30728084690F80090202006ABC1
:107F00004A4641460090384600F020FC06AA314619
:107F1000504600F045F8A01CC4B206F11000C6B2ED
:107F200033E0285D20282EDB285D7E282BDC285DB1
:107F300020381949086008460068000108600846B2
:107F40000068164908441449086008460068C0F3F0
:107F5000074708460088C0F30728084690F80090B5
:107F6000102002AB4A4641460090384600F0EEFB36
:107F700002AA3146504600F03FF8601CC4B206F138
:107F80000800C6B201E0601CC4B2285D00283FF7BB
:107F900055AF0EB0BDE8F0878802002080CF030007
:107FA0002DE9F04106468846144610211048FCF79A
:107FB00008FE20210F48FCF706FE002510E071198D
:107FC000C8B2414600F0F8FB002705E02078FDF735
:107FD000E5FA641C781CC7B2102FF7DB681CC5B229
:107FE000022DECDB10210248FCF7EDFDBDE8F0812D
:107FF00000080140001001402DE9F0410646884686
:10800000144610210E48FCF7DCFD002510E0711924
:10801000C8B2414600F0D0FB002705E02078FDF70C
:10802000BDFA641C781CC7B2082FF7DB681CC5B208
:10803000022DECDB10210248FCF7C5FDBDE8F08104
:108040000008014010B5002406480078012806D138
:1080500005480068804700200249087000E00624B7
:10806000204610BD62010020680100202DE9F05F6C
:1080700006460D464FF0000B2888052843D170783E
:108080004FEA002AB07840EA0A0AF0780402307910
:108090000443012C34DBB4F5FA6F31DA37460020A3
:1080A0002880022007F8010B2888401C288004F053
:1080B000070040B12046E11704EB5171C910491C7B
:1080C00001F0FF0805E02046E11704EB5171C1F310
:1080D000C70807F8018B2888401C28802246514693
:1080E000384600F0B5FA8146B9F1000F04D0484691
:1080F00000F082FB834608E028884044288004E0A2
:108100004FF0030B01E04FF0030B5846BDE8F09F22
:108110002DE9F04705460C464FF0000A2088052857
:1081200034D168784FEA0029A87840EA0909E8784C
:10813000060228790643012E25DB7D2E23DC2F46FF
:1081400000202080032007F8010B2088401C20809D
:108150007006000E07F8010B2088401C20800023C9
:1081600032464946384600F085FA8046B8F1000F9D
:1081700004D0404600F040FB824609E0208800EB36
:108180004600208004E04FF0030A01E04FF0030AAC
:108190005046BDE8F0872DE9F04104460E464FF009
:1081A00000083088052810D160780702A0780743BE
:1081B00001231A463946E01C00F05CFA054635B149
:1081C000284600F019FB804601E04FF003084046C6
:1081D000BDE8F0812DE9F04704460E464FF0000A55
:1081E0003088062826DB60784FEA0028A07840EA2D
:1081F0000808E07805022079054394F80590012DE0
:1082000015DB782D13DC6806000E48450FD10123DD
:108210002A464146A01D00F02DFA074627B13846F0
:1082200000F0EAFA824607E00520308004E04FF0D3
:10823000030A01E04FF0030A5046BDE8F087000052
:108240002DE9F04705460C4616461F46DDF82090FE
:108250004FF000081CB1012C01DBF72C02DD4FF0C0
:10826000020835E01C48047005BB1C481C49086026
:108270001C481D4908601D481D4908601D481E49CD
:10828000086000201D4908601D481E4908601E48FE
:108290001E4908601E481F4908604B463A46314651
:1082A0000D48007800F0F0F8804602E04FF0020838
:1082B00000BF00BFB8F1000F0AD100F07FFB10B97A
:1082C0004FF0030804E014480570012013490870BA
:1082D0004046BDE8F08700006001002025860008C8
:1082E00068010020418600086C0100207D8500089F
:1082F00064010020D984000870010020740100206E
:10830000A98A000878010020098C00087C0100205F
:10831000818B0008800100206101002062010020A3
:1083200038B500254C48007808B1062038BD6846AD
:1083300000F032FB01287DD19DF8000030B101280A
:1083400005D0022818D0032800D181E081E0434AFB
:1083500043494448444B1B68984705465DB941482A
:10836000007842490978884202D03E48007810B926
:10837000022000F02BFB6CE03948006800783C4993
:10838000087001203B490870002417E03A4810F8B3
:10839000340000B914E0384810F834003449097842
:1083A00088420AD1344800EBC4002C4942682C486A
:1083B000006890472F49087002E0641C102CE5DB30
:1083C00000BF2B480078642810D12C48006800B901
:1083D0003FE0264800782249096801F8010C20494D
:1083E0000968481E25490968884730E01D4800781B
:1083F00068B320480078C8B10020184908801C489C
:10840000007840F08001154802880088401C134B1A
:10841000188013480068815416480278184601886D
:108420000088401C18800E480068425414480078A8
:10843000012800E00EE000D100BF0848028808488B
:1084400001680A4800780F4B1B689847054600E012
:1084500000BF00BF002069E7620100201602002073
:108460001002002014020020700100206001002092
:1084700015020020180200208C0100200C020020B0
:1084800061010020640100202DE9F04781460E467D
:1084900014461F464FF000083B460822214630464E
:1084A00000F0ACFA012802D04FF003080FE0B4F559
:1084B000964F01D9232503E060000649B1FBF0F592
:1084C000A8B200F0B7FA012801D04FF003084046E7
:1084D000BDE8F087A07F17002DE9F04104460D4666
:1084E0001646002711480088FF2800DC04E09C2283
:1084F0000FA117A0FEF7A2FF0C480088042810DB8C
:108500000A4801881C4800F0C7F950B91A48007899
:10851000207006480088C01E30801748401C286024
:1085200000E005273846BDE8F08100002602002063
:108530002E2E5C2E2E5C4D69645F4D6F64627573E8
:108540005C7274755C6D627274752E63000000005D
:108550007573526376427566666572506F73203C20
:10856000204D425F5345525F5044555F53495A4531
:108570005F4D415800000000910300202DE9F041BB
:1085800005460E4617464FF000082148007801289E
:1085900038D1701E1F49086001201F4908801D48FE
:1085A000006805700846008838440880084601883D
:1085B0001848006800F070F9044617490888411C03
:1085C000154B198015490C54221219460888411C74
:1085D000198012490A540120114908700D4909688F
:1085E000087800F01BFA0B480068401C0949086035
:1085F00009480088401E084908800121002000F039
:1086000067F901E04FF005084046BDE8F081000041
:108610001D020020200200202402002091030020DF
:108620001C02002010B50020044908700021012020
:1086300000F04EF900F09AF910BD00001D02002074
:1086400010B50021084600F043F900F079F910BD9B
:108650002DE9F04104460D461646054832462946A6
:1086600083682046984707463846BDE8F0810000F9
:10867000940400202DE9F04107460C461546984623
:10868000B8F1000F07D1E9B2E0B2084A13683A46E0
:108690009847064606E0E9B2E0B2044A53683A4613
:1086A000984706463046BDE8F0810000940400205B
:1086B0000146002019B1012901DBF72901DD022063
:1086C00001E0014A117070476001002070B5054655
:1086D0000C460548844203D1284600F0DBF870BD03
:1086E0004FF0FF30FBE700002C03002070B50D4673
:1086F000044602E02946FFF7E9FF14F8010B0028C1
:10870000F8D170BD70B5002401210F48FCF75BFA69
:10871000002514E001210C48FCF753FA6006040E12
:1087200002210948FCF744FA10B1601CC4B200E011
:10873000E4B201210448FCF746FA681CC5B2082DD2
:10874000E8DB204670BD0000000C01402DE9F04739
:1087500080460D4616461F46DDF82090202113481E
:10876000FCF72FFA10211248FCF72DFA01211148CD
:10877000FCF727FA032000F069F8404600F066F89D
:10878000284600F063F8304600F060F8002404E06A
:10879000FFF7B8FF3855601CC4B24C45F8DB202108
:1087A0000248FCF710FABDE8F08700000010014015
:1087B00000080140000C014070B505460C46601EE3
:1087C000C4B205F1AF01C8B2FCF718FF102101EBEC
:1087D0001410FCF713FF04F00F00FCF70FFF70BD3F
:1087E000FCF70EFDFEF73AF8FCF766F8FBF7F6FA31
:1087F00001E0FEF71FFAFCE7014621B1012904D090
:10880000072906D103E0002005E0022003E006204E
:1088100001E0042000BF00BF7047000010B502480F
:108820000068804710BD00008001002010B502489C
:108830000068804710BD00007801002010B5024894
:108840000068804710BD00007C01002070B5044620
:10885000002519E004F0800028B14FF480610C4835
:10886000FCF7B1F904E04FF480610948FCF7A9F97D
:108870006006040E01210648FCF7A3F90121044813
:10888000FCF7A1F9681CC5B2082DE3DB70BD000040
:10889000000C014000BE704770B502460C46FF2533
:1088A000FF2309E012F8010B80EA03010648405C4F
:1088B00080EA05030548455C201EA4F10106B4B218
:1088C000F0D143EA052070BD589300085894000881
:1088D00070B505460C46012D0AD1012240F2255102
:1088E0001548FEF7B2FB29021448FCF76AF90AE0C2
:1088F000002240F225511048FEF7A7FB4FF480718B
:108900000E48FCF760F9012C0AD1012240F22661E1
:108910000948FEF79AFB21020848FCF754F90AE0DF
:10892000002240F226610448FEF78FFB4FF480716D
:108930000248FCF746F970BD0038014000080140CC
:1089400010B500210848FEF721F901210648FDF77E
:10895000FDFF002201210448FEF70FF90021024823
:10896000FDF7FAFF10BD0000000C004010B500211B
:108970000848FEF70BF901210648FDF7E7FF012241
:1089800011460448FEF7F9F801210248FDF7E4FF1B
:1089900010BD0000000C004001460020054A12787E
:1089A00032B1054A12780A700022024B1A70012077
:1089B00070470000ED020020EC0200200020024978
:1089C0000870012070470000ED02002001460120E0
:1089D000024A10700248017001207047ED02002029
:1089E000EC02002010B5044603490868FEF7BEFB00
:1089F0002070012010BD0000F00200202DE9F041A0
:108A000005460C4616461F46FDF78EFEFCF742FA59
:108A10002046FEF7B5FB0120BDE8F08110B5044605
:108A2000034908682146FEF7A6FB012010BD00009F
:108A3000F00200201FB504464FF4C060FDF70EF8A9
:108A400001210820FDF77EF91648FDF791FF601E11
:108A500080B2ADF8040040F60F60ADF800000020D1
:108A6000ADF80600ADF8020069460E48FEF790F832
:108A700001210C48FDF76AFF012211460948FEF763
:108A80007CF832208DF80C0000208DF80D008DF858
:108A90000E0001208DF80F0003A8FCF7A7FF0120AE
:108AA00004B010BD000C004038B500242148007807
:108AB00000B904E0ED2220A127A0FEF7BFFC684624
:108AC000FFF790FF2B48007830B101280AD0022828
:108AD00019D003282BD102E0FFF748FF27E0FFF76A
